:100000000C9440000C9468000C9468000C946800F8
:100010000C9468000C9468000C9468000C946800C0
:100020000C9468000C94C6060C94EF060C94180708
:100030000C94BC070C9441070C946A070C9493072A
:100040000C944B060C9474060C949D060C9468005A
:100050000C948C040C943F020C9468000C9468007F
:100060000C9468000C9468000C9468000C94680070
:100070000C9461040C948D020C946800B704F80889
:1000800011241FBECFEFD0E1DEBFCDBF11E0A0E055
:10009000B1E0E4E9F3E102C005900D92AA37B1079F
:1000A000D9F712E0AAE7B1E001C01D92A13BB10768
:1000B000E1F710E0C0E8D0E004C02297FE010E9402
:1000C0005209CC37D107C9F70E9486010C94C809A0
:1000D0000C940000EF920F93E12C01E028E040E83F
:1000E00055E260E070E08FEE91E00E945F036AE00D
:1000F00071E08FEE91E00F91EF900C941E0526E9D0
:1001000030E040E050E062E370E080E090E00E9488
:100110000506609386017093870180938801909310
:10012000890126E930E040E050E062E370E080E0E1
:1001300090E00E9405066093820170938301809392
:1001400084019093850126E930E040E050E062E3CD
:1001500070E080E090E00E94050660937A01709361
:100160007B0180937C0190937D012AE030E040E0A8
:1001700050E061E070E080E090E00E94050660934E
:100180007E0170937F018093800190938101409163
:1001900086015091870160918801709189012AE060
:1001A00030E08FEE91E00E948E056DE371E08FEEFE
:1001B00091E00E9406054091820150918301609177
:1001C0008401709185012AE030E08FEE91E00E9479
:1001D0008E056DE371E08FEE91E00E94060540917F
:1001E0007A0150917B0160917C0170917D012AE040
:1001F00030E08FEE91E00E948E056DE371E08FEEAE
:1002000091E00E94060540917E0150917F0160912E
:100210008001709181012AE030E08FEE91E00E9430
:100220008E056FE371E08FEE91E00E941E0560ED98
:1002300077E080E090E00C94640180918B019091D4
:100240008C01A0918D01B0918E0130918A01232FF4
:100250002D5F2D3720F40196A11DB11D05C0232F60
:100260002A570296A11DB11D20938A0180938B010C
:1002700090938C01A0938D01B0938E0180918F019A
:1002800090919001A0919101B09192010196A11DD0
:10029000B11D80938F0190939001A0939101B09331
:1002A000920108950F931F938FB7F89400918B01DB
:1002B00010918C0120918D0130918E018FBFB8017A
:1002C000C9011F910F9108958F929F92AF92BF9293
:1002D000CF92DF92EF92FF926B017C010E9452015C
:1002E0004B015C010E945201681979098A099B0936
:1002F0006C157D058E059F05A8F3FF90EF90DF90AC
:10030000CF90BF90AF909F908F9008950E9423064A
:100310000E946A000E947F00FDCFFC012089318984
:10032000C9010895DC0150962D913C915197232BE2
:1003300049F05496ED91FC915597E80FF91F2689E5
:1003400030E002C02FEF3FEFC9010895FC01118A90
:10035000108A158A148A138A128A0895FC0124814E
:100360003581C9010895FC0124813581C9010895B1
:10037000FC0180899189892BD1F03FB7F89480895D
:1003800091890197918B808B84899589DF01A80FD2
:10039000B91F56962C910196803291051CF4958BCD
:1003A000848B02C0158A148A3FBF30E002C02FEF51
:1003B0003FEFC9010895EF92FF921F93CF93DF9310
:1003C0001F92CDB7DEB77C01D701DA968D919C9153
:1003D000DB974097C8F71FB7F894D696ED91FC913C
:1003E000D7970190F081E02DC701C69669830995E2
:1003F00069814097C8F4F70182AD93AD019693AF40
:1004000082AF84AD95ADE80FF91FE05CFF4F6083CC
:100410000196D701DD969C938E93DC97409724F04C
:10042000DD961C921E92DC97F701EA5AFF4F01906D
:10043000F081E02D8081806280831FBF81E090E0A9
:100440000F90DF91CF911F91FF90EF900895665F1D
:100450007F4F680F791FCB010895665F7F4F680F4C
:10046000791FCB010895665F7F4F680F791FCB011D
:100470000895665F7F4F680F791FCB0108951F9223
:100480000F920FB60F9211242F938F939F93AF93D8
:10049000BF93EF93FF938091290290912A02892BB9
:1004A00021F1E0914902F0914A0280912902909154
:1004B0002A02019790932A028093290280912D02AB
:1004C00090912E02DC01AB5DBD4F1A962C910196E6
:1004D000803191052CF490932E0280932D0204C05C
:1004E00010922E0210922D02208380912902909169
:1004F0002A02892B31F4E0914502F091460288E905
:100500008083FF91EF91BF91AF919F918F912F9138
:100510000F900FBE0F901F9018951F920F920FB65D
:100520000F9211242F938F939F93AF93BF93EF93C9
:10053000FF938091CD019091CE01892B21F1E09123
:10054000ED01F091EE018091CD019091CE010197E6
:100550009093CE018093CD018091D1019091D201F1
:10056000DC01A753BE4F1A962C910196803191055C
:100570002CF49093D2018093D10104C01092D20147
:100580001092D10120838091CD019091CE01892BD1
:1005900031F4E091E901F091EA0188E98083FF916B
:1005A000EF91BF91AF919F918F912F910F900FBEBF
:1005B0000F901F901895FC01262F1382128248EE8F
:1005C00053E060E070E0448355836683778385E47D
:1005D00091E09183808385E591E09587848780E22F
:1005E00090E097878687118A108A158A148A138A61
:1005F000128A8FE591E097AB86AB80E190E091AFF6
:1006000080AF13AE12AE17AE16AE15AE14AE2223E7
:1006100021F0213009F052C028C0DF01A05BBF4F9C
:1006200085EC90E08D939C93DF01AE5ABF4F84EC34
:1006300090E08D939C93DF01AC5ABF4F80EC90E02B
:100640008D939C93DF01AA5ABF4F81EC90E08D936C
:100650009C93DF01A85ABF4F82EC90E08D939C934E
:10066000E65AFF4F86EC90E027C0DF01A05BBF4F4A
:100670008DEC90E08D939C93DF01AE5ABF4F8CECD4
:1006800090E08D939C93DF01AC5ABF4F88EC90E0D3
:100690008D939C93DF01AA5ABF4F89EC90E08D9314
:1006A0009C93DF01A85ABF4F8AEC90E08D939C93F6
:1006B000E65AFF4F8EEC90E09183808308953F923D
:1006C0004F925F926F927F928F929F92AF92BF9262
:1006D000CF92DF92EF92FF920F931F93CF93DF930E
:1006E000EC014A015B01122F3E2C60E072E18AE7C7
:1006F00090E0A50194010E94070969017A0184E054
:10070000C80ED11CE11CF11C83E0F694E794D79449
:10071000C7948A95D1F760E074E284EF90E0A50178
:1007200094010E94070929013A0194E0490E511CE5
:10073000611C711C93E076946794579447949A9542
:10074000D1F7A30192014427552760E874E88EE1B0
:1007500090E00E9429095901A818B908B7FE03C002
:10076000B194A194B108A70196014427552760E4EC
:1007700072E48FE090E00E9429092819390937FFB7
:1007800003C0319521953109FE01EC5AFF4F0190CC
:10079000F081E02DA216B3063CF482E08083620172
:1007A00081E0C81AD10804C0108291E0C91AD108AA
:1007B0001630C1F018F4153099F405C0173029F03F
:1007C000193071F404C080E00EC084E00CC0FE015A
:1007D000EA5AFF4F0190F081E02D80818460808390
:1007E00086E001C082E0023009F4886091E03916A9
:1007F00021F092E0391204C002C0806301C080621F
:10080000FE01E85AFF4F0190F081E02D8083FE0148
:10081000E05BFF4F0190F081E02DD082FE01EE5AA7
:10082000FF4F0190F081E02DC082CA5ADF4FE8816E
:10083000F98188E98083DF91CF911F910F91FF901B
:10084000EF90DF90CF90BF90AF909F908F907F9070
:100850006F905F904F903F9008950F931F93CF93A9
:10086000DF931F92CDB7DEB78C01DC01ED91FC91D7
:100870000190F081E02D6983099569818097D0F41A
:10088000F80184819581019695838483868197817F
:10089000E80FF91F628701968032910534F4D80180
:1008A00017969C938E93169703C0F80117821682B1
:1008B00081E001C080E00F90DF91CF911F910F91F7
:1008C00008951F920F920FB60F9211242F933F930A
:1008D0004F935F936F937F938F939F93AF93BF9348
:1008E000EF93FF93E091ED01F091EE0160818FE9CC
:1008F00091E00E942D04FF91EF91BF91AF919F91E4
:100900008F917F916F915F914F913F912F910F90B8
:100910000FBE0F901F9018951F920F920FB60F9257
:1009200011242F933F934F935F936F937F938F93F4
:100930009F93AF93BF93EF93FF93E0914902F091A0
:100940004A0260818BEF91E00E942D04FF91EF91AC
:10095000BF91AF919F918F917F916F915F914F91D7
:100960003F912F910F900FBE0F901F90189560E050
:100970008FEE91E00E94DB0261E083E991E00C944C
:10098000DB02CF92DF92EF92FF920F931F93CF93F0
:10099000DF936C01EB017A01E60EF71E00E010E038
:1009A0000BC06991D601ED91FC910190F081E02D91
:1009B000C6010995080F191FCE15DF0591F7C8016B
:1009C000DF91CF911F910F91FF90EF90DF90CF902B
:1009D00008956115710581F0DB010D900020E9F7A4
:1009E000AD0141505109461B570BDC01ED91FC91C3
:1009F0000280F381E02D099480E090E00895DC010D
:100A0000ED91FC910190F081E02D09940C94E904A2
:100A10000F931F93CF93DF93EC016DE00E94FF04CF
:100A20008C016AE0CE010E94FF049C01200F311F5F
:100A3000C901DF91CF911F910F9108950F931F93DB
:100A4000CF93DF93EC010E94E9048C01CE010E9458
:100A500008059801280F391FC901DF91CF911F9117
:100A60000F9108954F925F926F927F929F92AF92F3
:100A7000BF92CF92DF92EF92FF920F931F93CF938B
:100A8000DF93CDB7DEB7A1970FB6F894DEBF0FBEE8
:100A9000CDBF5C016A017B01922E19A281E0821711
:100AA00010F08AE0982E8E010F5D1F4F492C512CBB
:100AB000612C712CC701B601A30192010E940709A4
:100AC0008C2D929E80191124015011098A3014F442
:100AD000805D01C0895CF801808369017A01C114DD
:100AE000D104E104F10431F7B801C5010E94E90421
:100AF000A1960FB6F894DEBF0FBECDBFDF91CF91A8
:100B00001F910F91FF90EF90DF90CF90BF90AF902B
:100B10009F907F906F905F904F900895CF92DF925B
:100B2000EF92FF920F931F93CF93DF93EC016A0133
:100B30007B012115310579F4E881F9810190F0817B
:100B4000E02D642FDF91CF911F910F91FF90EF90D7
:100B5000DF90CF9009942A30310519F477FD0EC04B
:100B60002AE0B701A601CE01DF91CF911F910F912D
:100B7000FF90EF90DF90CF900C9432056DE20E94D1
:100B8000FF048C0144275527BA014C195D096E09F1
:100B90007F092AE0CE010E943205080F191FC80103
:100BA000DF91CF911F910F91FF90EF90DF90CF9049
:100BB00008950F931F93CF93DF9300D000D0CDB74C
:100BC000DEB79B01AC01611571058105910579F0D6
:100BD00069833A834B835C830E94B20929813A81FD
:100BE0004B815C810E9429098B019C0103C000E0BC
:100BF00010E09801B801C9010F900F900F900F906D
:100C0000DF91CF911F910F910895CF92DF92EF92D4
:100C1000FF926B017C01621773078407950764F4E8
:100C2000CA01B9016C197D098E099F090E94D90575
:100C3000C60ED71EE81EF91EB601C701FF90EF9041
:100C4000DF90CF90089563E08FE892E00E94E20881
:100C500021E04DE151E060E08FE892E00E94B808A9
:100C600064E08FE892E00E94E50761E08DE692E0A3
:100C70000E94E20864E08DE692E00E94E50761E0F0
:100C80008BE492E00E94E20864E08BE492E00E9430
:100C9000E507789408951F920F920FB60F921124D2
:100CA0002F933F934F935F936F937F938F939F9374
:100CB000AF93BF93EF93FF93E091A902F091AA0243
:100CC000309709F00995FF91EF91BF91AF919F91F6
:100CD0008F917F916F915F914F913F912F910F90E5
:100CE0000FBE0F901F9018951F920F920FB60F9284
:100CF00011242F933F934F935F936F937F938F9321
:100D00009F93AF93BF93EF93FF93E091AB02F0916A
:100D1000AC02309709F00995FF91EF91BF91AF9127
:100D20009F918F917F916F915F914F913F912F9103
:100D30000F900FBE0F901F9018951F920F920FB635
:100D40000F9211242F933F934F935F936F937F9351
:100D50008F939F93AF93BF93EF93FF93E091A7027D
:100D6000F091A802309709F00995FF91EF91BF919A
:100D7000AF919F918F917F916F915F914F913F9133
:100D80002F910F900FBE0F901F9018951F920F92EA
:100D90000FB60F9211242F933F934F935F936F934E
:100DA0007F938F939F93AF93BF93EF93FF93E091C4
:100DB0006502F0916602309709F00995FF91EF9175
:100DC000BF91AF919F918F917F916F915F914F9163
:100DD0003F912F910F900FBE0F901F9018951F926B
:100DE0000F920FB60F9211242F933F934F935F935F
:100DF0006F937F938F939F93AF93BF93EF93FF93E3
:100E0000E0916702F0916802309709F00995FF912F
:100E1000EF91BF91AF919F918F917F916F915F9172
:100E20004F913F912F910F900FBE0F901F901895EB
:100E30001F920F920FB60F9211242F933F934F934F
:100E40005F936F937F938F939F93AF93BF93EF9332
:100E5000FF93E0916302F0916402309709F00995E5
:100E6000FF91EF91BF91AF919F918F917F916F9182
:100E70005F914F913F912F910F900FBE0F901F9058
:100E800018951F920F920FB60F9211242F933F9334
:100E90004F935F936F937F938F939F93AF93BF9382
:100EA000EF93FF93E0918702F0918802309709F069
:100EB0000995FF91EF91BF91AF919F918F917F9194
:100EC0006F915F914F913F912F910F900FBE0F90B7
:100ED0001F9018951F920F920FB60F9211242F9307
:100EE0003F934F935F936F937F938F939F93AF93B2
:100EF000BF93EF93FF93E0918902F0918A023097BC
:100F000009F00995FF91EF91BF91AF919F918F915A
:100F10007F916F915F914F913F912F910F900FBEF5
:100F20000F901F9018951F920F920FB60F921124D9
:100F30002F933F934F935F936F937F938F939F93E1
:100F4000AF93BF93EF93FF93E0918502F0918602F8
:100F5000309709F00995FF91EF91BF91AF919F9163
:100F60008F917F916F915F914F913F912F910F9052
:100F70000FBE0F901F9018951F920F920FB60F92F1
:100F800011242F933F934F935F936F937F938F938E
:100F90009F93AF93BF93EF93FF93E0918D02F091F6
:100FA0008E02309709F00995FF91EF91BF91AF91B3
:100FB0009F918F917F916F915F914F913F912F9171
:100FC0000F900FBE0F901F901895DC012C9161506F
:100FD000223039F4673068F4E62FF0E0EB59FE4F29
:100FE00006C0693030F4E62FF0E0E459FE4F20816E
:100FF00001C020E0DC011A96ED91FC911B978081E5
:10100000887F822B80830895CF93DF93EC016883E0
:10101000613011F120F0623009F06CC048C01B82D1
:101020001A8286E490E09D838C838EE690E09F8315
:101030008E8384E490E09987888785E490E09B879D
:101040008A871D861C8687E490E09F878E87198A91
:10105000188A88E490E022C08FE690E09F838E8318
:1010600085E890E09B838A8384E890E09D838C836D
:1010700080E890E09987888781E890E09B878A875D
:1010800089E890E09D878C8788E890E09F878E872D
:101090008BE890E0998B888B8AE890E09B8B8A8B19
:1010A0001D8A1C8A1F8A1E8A82E0898323C01B82B4
:1010B0001A8282EB90E09D838C8380E790E09F838F
:1010C0008E8380EB90E09987888781EB90E09B8707
:1010D0008A871D861C8683EB90E09F878E87198AFE
:1010E000188A84EB90E09B8B8A8B1D8A1C8A1F8A4E
:1010F0001E8A698360E0CE010E94E507EA81FB81D8
:10110000309709F01082EC81FD811082198E188EC3
:101110001B8E1A8E1D8E1C8E1F8E1E8E19A218A25B
:10112000DF91CF91089551E0411101C050E0653049
:10113000F0F4E62FF0E0EB58FE4F408147FD17C07A
:10114000DC011696ED91FC911797808121E030E04B
:10115000042E01C0220F0A94EAF720952823852F38
:10116000042E01C0880F0A94EAF7282B20830895E3
:10117000623099F028F4662341F06130C9F409C067
:10118000633079F06430A1F410C0FC01518F408FBE
:101190000FC0FC01538F428F0BC0FC01558F448F51
:1011A00007C0FC01578F468F03C0FC0151A340A329
:1011B000452B11F440E003C0222319F041E00C94C8
:1011C00093080895DC011896ED91FC9119973081F0
:1011D000262F23703C7F232B20831A96ED91FC91C0
:1011E0001B9780816C70660F877E682B60830895E3
:1011F00060E08FE892E00E94040861E08DE692E0F2
:101200000E94040862E08BE492E00C940408A1E2DE
:101210001A2EAA1BBB1BFD010DC0AA1FBB1FEE1F70
:10122000FF1FA217B307E407F50720F0A21BB30BBB
:10123000E40BF50B661F771F881F991F1A9469F737
:1012400060957095809590959B01AC01BD01CF0193
:101250000895052E97FB16F4009407D057FD0DD086
:101260000E94070907FC09D07EF49095809570953F
:1012700061957F4F8F4F9F4F0895509540953095C2
:1012800021953F4F4F4F5F4F08950E945609A59FEC
:10129000900DB49F900DA49F800D911D1124089571
:1012A000EE0FFF1F0590F491E02D0994A29FB0016D
:1012B000B39FC001A39F01D0B29F700D811D112467
:1012C000911D08958F929F92AF92BF92CF92DF921D
:1012D000EF92FF92CF93DF93EC01688179818A814D
:1012E0009B81611571058105910521F464E279ED19
:1012F0008BE597E02DE133EF41E050E00E942909B2
:1013000049015A019B01AC01A7EAB1E40E944509D9
:101310006B017C01ACEEB4EFA50194010E94C309FE
:10132000C60ED71EE81EF91EF7FE06C081E0C81AD9
:10133000D108E10880E8F80AC882D982EA82FB82F3
:10134000E894F7F8B601C701DF91CF91FF90EF90D5
:10135000DF90CF90BF90AF909F908F9008950E94A4
:101360006209089586E091E00E9462090895609301
:101370000601709307018093080190930901089575
:10138000B7FF0C9445090E944509821B930B0895F1
:04139000F894FFCFFF
:101394000000B102200001000000496E6963696F1A
:1013A40020646520736B65746368202D2073656306
:1013B40075656E636961206465206E756D65726F15
:1013C4007320616C6561746F72696F7300400020F3
:1013D4000000000000DB01C1048D019201B801A6E8
:1013E4000100000000B3013302390200000000AE26
:1013F4000127022D0201020304050607010200036E
:0A14040000040506070001020305BD
:00000001FF
